:10000000830100308A004928F40003088301C100FD
:100010000408C2000A08C3008A017008C8007108F9
:10002000C9007208CA007308CB004608C40047081C
:10003000C500831203138C1D262883168C1D2628C9
:100040000A128A11FE220A128A1134280B188B1DFB
:100050002F280A128A1564270A128A1134280A12D4
:100060008A1561270A128A114808F0004908F10030
:100070004A08F2004B08F3004408C6004508C700D0
:100080004208840043088A0041088300F40E740E7D
:100090000900203084004030622083010730C7000F
:1000A000FF30C6004030840041306620203084009C
:1000B00047308317622083010A128A11F729040648
:1000C0008001840A0406031D5F280034F0000A1230
:1000D0008A1174200A128A118000840A04087006AA
:1000E000031900346728C600C71B7D2847088A000B
:1000F0004608C60A0319C70A8200831347188317E4
:100100004608C60A84000008080082074434033405
:100110004D3400346F34003475340034733400349B
:10012000653400342F3400344B34003465340034EB
:1001300079340034623400346F3400346134003474
:1001400072340034643400342034003443340034D6
:100150006F3400346D340034623400346934003458
:100160006E34003461340034743400346934003443
:100170006F3400346E34003420340034443400349E
:100180006534003476340034693400346334003428
:100190006534003482070534013409340234A13453
:1001A000013409340134A1340034053409341934DC
:1001B00001342934033415340034253401349534A2
:1001C0000334753401348134023495340134753488
:1001D00005348134013405340134093430340934B0
:1001E0003134093438341534813425347F3475344E
:0E01F00008349534033481340634C034C034EE
:1002000082070534013409340634A134013405343D
:1002100007341934E0342934E734153400342534F4
:100220000134753401349534083481340234953402
:10023000013475340834813401349534053475340F
:100240000134053408341934013429340534913427
:1002500002349534013475340334913401349534C7
:1002600006347534083415340034253465340534C7
:100270000734193400342934653481340034C034EF
:100280008207093402343B3400340234013404342C
:10029000A0343234093404340034003401340334DB
:1002A000013402340534093421340034013400347B
:1002B00001342234343400340734053481340334B7
:1002C000043400340A340934043401340034013471
:1002D0000334013401340634093421340034013448
:1002E0000034013422343F3400340734053482347E
:1002F0000334083400340A3482070C34033456348F
:100300000034313400342E3400343134003431348C
:020310000034B7
:1003160083120313B40083160317B41BB829831280
:100326000313340883160317B50036088312031324
:10033600B500B601340836020318AF29360833076C
:10034600840083130008F0003608350784008317FD
:1003560070088000B60A9D29403083160317B4053D
:10036600B4068830B4040130B9290030031383126F
:100376000800831603179701013091009001083099
:1003860095008312A201A601A60AB801B901BA0115
:10039600A501B401B501AE01AF01AC01AD01B001DB
:1003A600B101A801A901B601B701B201B301AA01C1
:1003B600AB0103138C1183168C15C0308B0083128E
:1003C6000614080083160317951183120313A4015C
:1003D600A501A40A0319A50AFD302502E830031970
:1003E6002402031CEC29BC2983120313A6018316DD
:0A03F600860183128601A501A50A05
:1004000032302502031CFF290A128A11BC210A126C
:100410008A118316031717080339033A031D0B2AA1
:1004200083120313A701A40108308A0026088D2037
:10043000A80008308A002608023E8D20A900A60ADE
:10044000A5012730B30004300A128A15CF270A12FB
:100450008A11F000F10171040319212AA50A0F3055
:100460002502031C212A083026020318A6012608AB
:100470000139013A031D142A08308A00240871202A
:100480000A128A11013A031D472A0230AB000830D4
:100490008A0024086020AD002B30B30008300A1217
:1004A0008A118B210A128A11F000F10171040319DB
:1004B0004C2AAB01AD012B30B30008300A128A116F
:1004C0008B210A128A11F000F101710403195B2AD1
:1004D000A40A0F30A405142A831603171011111152
:1004E000101211169510831203138C110317A70114
:1004F000031308008316031710121112101111159F
:100500009514831203138C110317A701A70A031371
:100510000800831603171218131C932A8312B40AB7
:100520000319B50A83169218931C9B2A8312AE0AEC
:100530000319AF0A83161219131DA32A8312AC0ADA
:100540000319AD0A83169219931DAB2A8312B00AC0
:100550000319B10A8316121A131EB32A8312A80AAA
:100560000319A90A8316921A931EBB2A8312B40A8E
:100570000319B50A8316121B131FC32A8312B20A6A
:100580000319B30A8316921B931FCB2A8312AA0A5C
:100590000319AB0A83169010031383120800831605
:1005A00003179012831203138C110800831603178C
:1005B00097018312A7018316901190119011901149
:1005C0000830A1008830A000B830A2000830A40094
:1005D000C030A60096019001831203138C110630DF
:1005E0008316031798003B309100FF3093000130D1
:1005F00097008312A60103138614080083160317BD
:100600009019911D092B0A128A1162230A128A116C
:10061000212B1018111C0E2BD622212B901A911E63
:10062000132BCF22212B9018911C182B8922212BC0
:10063000101A111E1D2B7A22212B1019111D212B8E
:100640006C22831203138C110800831603172608EB
:1006500083120313BE00BF01402B2308C7002208EA
:100660000A128A1173200A128A11F0003F083E070D
:100670008400831770088000A20A0319A30ABF0A26
:100680000317210803133F0203184E2B21082302EE
:10069000031D4C2B20082202031C2D2B03172108BD
:1006A00003133F020317031CA50103133F0883161E
:1006B0000317A5004030A405A4068830A404031342
:1006C00083120800831603171408F0000310F00CBF
:1006D0000310700CF0000310F00D0310700D831266
:1006E000031340078400831700080317BB00831619
:1006F0001408F0000310F00C0310700CF00003104D
:10070000F00D0310700D831203134007023E8400A6
:10071000831700080317BD0083161408F0000310A8
:10072000F00C0310700CF0000310F00D0310700DAE
:10073000831203134007F000700A84008317000837
:100740000317BC00831614088312A30083169011AC
:10075000831203138C110317A308031DB32B20303E
:100760000313860603172308083A031DBB2B4030EA
:100770000313860603172308183A031DC32B803082
:100780000313860603173B083C39243A031D032C48
:100790002308043A031D002C2508063A0319F82EF5
:1007A0002508053A031DE82BA501A201240883169C
:1007B00096008312A4080319E42B023083169700D5
:1007C0008312031306150800013083169700FC2FCF
:1007D0002508033A0319FC2F2503031DFC2F4303AF
:1007E0004404031DF72B0130831699058312430837
:1007F000023A4404031DFC2F013083169A05FC2F96
:1008000023080C3AFC2F3B083C39043A031D292CE1
:100810002508213A031D122C8316A501C830A40017
:100820008312A50108308316A1008830A000003093
:1008300083124602093003194502031C242CF830A8
:10084000C507031CC603262C8316A501C8308316D2
:10085000712C3B083C39343A031DFC2F83162208C7
:100860008312A000840083170008BF00200A8400C0
:1008700083170008C0002008023E84008317000888
:10088000C100840A0008C2002008043E84008317C7
:100890000008C300840A0008C4002008063E840043
:1008A00083170008C500840A0008C60008308316B4
:1008B000A10083123F08213A031D602CC830612C2F
:1008C00088308316A0000830A40015128312A501F9
:1008D000E82F41034204031DD62CA6108316A50160
:1008E000C830A4008312A501FC2F4208F100410882
:1008F000F000FF30F10170037104031DD62CA61423
:100900006E2C4108A40080302402831603185B2D4E
:10091000A501C830A4008312A5010530BB2F00300B
:1009200042020230031941020318982C4108A20028
:1009300042084104031DA02C023083169700A72C07
:10094000033083169700831203138615831603174B
:10095000A501C830A4008312A50188308316A80021
:1009600083122008103E8316AA000830A9004830E0
:10097000AC0083122008183E8316AE000830AD008C
:100980008830B00083122008203E8316B200083061
:10099000B1004830B40083122008203E8316B60010
:1009A0000830B5000E3099009A00FC2F83165B2D9D
:1009B0004008013A0319692C023A0319752C063ACA
:1009C0000319812C0C3A03198F2CD62C8316170887
:1009D000033A031D5B2D831243080313BB00383E0B
:1009E000840083170317410880006E2C4008013AE9
:1009F0000319D62C023A0319D62C083A0319E62C0F
:100A0000D62C98300313B900031743080F3903138A
:100A1000BC000317420841048316031D5B2D170811
:100A20000339023A031D1B2D83120313BC0803195B
:100A3000262D8316031717080339033A031D5B2D70
:100A40000330831203133C020318592D3C08983ECF
:100A5000840083170010492D98300313B900031741
:100A600043080F390313BC000317420841048316DF
:100A7000031D5B2D17080339023A031D4E2D831207
:100A80000313BC08031D4C2D3C08983E84008317BB
:100A90000014831603176F2C8316031717080339E6
:100AA000033A031D5B2D0330831203133C02031C26
:100AB000442D831603171814FC2F4008013A03191C
:100AC000012D023A03192C2DD62C831626088312E9
:100AD0000313BD0084008317031722088000013030
:100AE0008316782E42080313BA003A0B992D06306C
:100AF0000317A5004E300313A2000830A300603096
:100B0000A0000830A100F1002008F0002208F00247
:100B1000031CF1032308F102710803174602031DA9
:100B2000932D70084502031CBB2D08300317A1004C
:100B3000F82E3A08023A031DCB2D06300317A50004
:100B400041300313A2000130A3007C30A00001302B
:100B5000A100F1002008F0002208F002031CF103BC
:100B60002308F102710803174602031DB92D70080E
:100B700045020318952D4608F1004508F0000313BF
:100B80002208F0070318F10A2308F1077008A000F3
:100B90007108A100952D3A08033A031D08000317B8
:100BA0004408043A0930031943060319DB2D4408AD
:100BB0004304031DD62C41080313B7000630031766
:100BC000A5000830A1004F2EAD30A2000830A300D0
:100BD0000A128A15AD200A128A11AD3EA000083013
:100BE000312E3930A2000830A3000A128A153920AC
:100BF0000A128A11393EA0000830312E8630A20038
:100C00000030A3000A128A1186200A128A11863E39
:100C1000A0000030312E7D30A2000130A3000A1266
:100C20008A117D210A128A117D3EA0000130312EE9
:100C30008330A2000830A3000A128A1583200A120A
:100C40008A11833EA0000830312E2030A2000830E7
:100C5000A3000A128A1520200A128A11203EA00041
:100C60000830A100F1002008F0002208F002031C67
:100C7000F1032308F102710803174602031DF62E43
:100C80007008F52E0130A2000830A3000A128A1560
:100C900001200A128A11013EA0000830312E0313F0
:100CA0003708F000073070020318592D06308A000B
:100CB0005D30700703188A0A8200E42DF12DFE2DA5
:100CC0000B2E182E252E422E03134008063E8400BC
:100CD00083170008BD0084008317031726088000CF
:100CE00003133D0A84008317800102308316031723
:100CF000A500C830A400FC2F40080319642E063A52
:100D00000319722D0E3A0319652DFC2F43080313A6
:100D1000BB00831603171708033A031D5B2D013030
:100D2000831203133B020318592D4008063E84002A
:100D300083170008BD003B08383E84008317000875
:100D4000F0003D0884008317700880000130762E83
:100D500003134008063E840083170008BD003D0AC7
:100D6000840083178001023083160317A5008312C5
:100D700043080313BB00831603171708023A031D29
:100D8000C82E83120313BB080319D22E8316031730
:100D90001708033A031D5B2D0130831203133B0236
:100DA0000318592D3B08383E840083170008B02FE4
:100DB00042080313B800223A031D272F06300317F9
:100DC000A500102FCB300313A2000030A300343055
:100DD0002207A0000030031801302307A1000830CB
:100DE0000317A1004608343003194502031C5A2F8B
:100DF0002523FC2F01300313A2000130A3003F3054
:100E00002207A0000030031801302307A10008309A
:100E10000317A100003046023F3003194502F62EA9
:100E20004408F3004308F2004108F2044208F304C6
:100E30000130F205F301232F72080319E22E013A63
:100E40000319FA2EFC2F730803191C2FFC2F3808E6
:100E5000213A031D592D06300317A5006A2F99303A
:100E60000313A2000830A30009302207A0000030BD
:100E7000031801302307A10008300317A100003038
:100E8000460209300D2FA3300313A2000830A3003F
:100E900009302207A0000030031801302307A10009
:100EA00008300317A100003046020930031945023B
:100EB0000318F82E4608F1004508F0000313220835
:100EC000F0070318F10A2308F1077008A000710861
:100ED000A100F82E4408F3004308F2004108F20490
:100EE0004208F3040130F205F3017D2F7208031963
:100EF0002F2F013A0319432FFC2F73080319762F64
:100F0000FC2F40080319A82E063A0319D82E0C3AD4
:100F10000319862EFC2FC008031DFC2F98300313E5
:100F2000B900031743080F390313BC0083160317D6
:100F3000260883120313BD003D0A84008317800135
:100F4000023083160317A5000330831203133C02FB
:100F50000318592D3C08983E840083170008013976
:100F6000F0003D088400831770088000C8308316A5
:100F700003177A2E2130A500FC2F4008093A0319E7
:100F8000BA2F033A03196E2CE62FA130A500C83002
:100F900083167A2E4008013A0319C52F033A031924
:100FA000D62C013A0319D62C053AD62C3F08213A03
:100FB0000319BD2F033A0319D62C013A0319D62C75
:100FC000823A0319CA2F033A0319D62C013AD62CB8
:100FD0003F080319D82C013A0319F62C033A0319D8
:100FE0005D2D823A03197C2E013A0319812F033AB1
:100FF00003198B2FBF1AD62F031383120800A034B6
:1010000082071E3403344534003450340034323403
:101010000034493400344E340034203400344B342E
:1010200000346534003479340034623400346F3471
:101030000034613400347234003464340034820784
:10104000183403344534003450340034313400341F
:10105000493400344E340034203400344D340034EC
:101060006F34003475340034733400346534003424
:101070008207143403344D3400346934003463344B
:101080000034723400346F34003463340034683414
:10109000003469340034703400348207123401346F
:1010A000003401340034003400340834D8340434BB
:1010B0000C3400344134043401340234003401343B
:1010C000820710340C3406341534123406340B34D1
:1010D0000C3413342C341834163405342C342C349A
:1010E0002C348207013400340034003400340034DE
:1010F000003400340034003401340134013400344D
:101100000034003482070A34033443340034663434
:10111000003467340034313400348207FC34FC344A
:10112000FC3400340434043404340034FC34FC341F
:10113000820709342134003401340034013422346C
:10114000343400348207093421340034013400344B
:10115000013422343F340034820704340334093428
:02116000043455
:101EC2000313831208000B100A128A15812F831242
:101ED2000313A400983E84008317001008008312A5
:101EE2000313A400983E840083170014080083168D
:101EF200031795119514970103138C11831208008F
:101F020083120317A61C8D2F83169510111610121B
:101F120011111011151583120313B701B801B70A75
:101F22000319B80AEA303802603003193702031C79
:101F3200902F8316031715110313831208008312BF
:101F42000313A40083160317A81BCB2F2A0883129E
:101F52000313A500A601831603172908831203138E
:101F620026020318C22F26082507840083170008BB
:101F7200F000260824078400831370088000A60A54
:101F8200AC2F403083160317A805A8068830A80492
:101F92002908CC2F00300313831208008312031385
:101FA200B40083160317AC1BFC2F831203133408EF
:101FB20083160317AD002E0883120313B500B60172
:101FC200340836020318F32F3608330784008313CC
:101FD2000008F00036083507840083177008800077
:101FE200B60AE12F403083160317AC05AC068830E1
:0E1FF200AC040130FD2F0030031383120800F1
:02400E003A3F37
:00000001FF
